:100000000C9474000C949C000C949C000C949C0028
:100010000C949C000C949C000C949C000C949C00F0
:100020000C949C000C949C000C949C000C949C00E0
:100030000C949C000C949C000C949C000C949C00D0
:100040000C94EC100C949C000C94BC0F0C94EE0FD0
:100050000C949C000C949C000C949C000C949C00B0
:100060000C949C000C949C007A037E038403880308
:100070008E03920398039C03C40A390BD10ADE0A4B
:10008000E90AF30AFF0A0D0B1B0B290B00000008FD
:10009000000201000003040700000000000000004F
:1000A000010204081020408001020408102001020F
:1000B00004081020040404040404040402020202DC
:1000C00002020303030303030000000023002600D1
:1000D000290000000000250028002B00000000007F
:1000E000240027002A001E1011241FBECFEFD8E0E5
:1000F000DEBFCDBF12E0A0E0B1E0ECE8F7E202C065
:1001000005900D92AE3EB107D9F723E0AEEEB2E016
:1001100001C01D92A43AB207E1F710E0C8EED0E0AA
:1001200004C02297FE010E948012C63ED107C9F783
:100130000E94DD100C94C4130C9400002AE031E0FE
:10014000FC01318320830895FC0122812111128258
:100150000895CF93DF93EC018EE191E0998388833A
:10016000CE010E94A4008AE091E099838883DF9108
:10017000CF910895FC0182810895CF93DF931F9260
:10018000CDB7DEB76983E091FA02F091FB020280FD
:10019000F381E02D41E050E0BE016F5F7F4F8AEFB9
:1001A00092E009950F90DF91CF9108952AE031E018
:1001B000FC01318320830C94710ECF93DF93EC010B
:1001C0000E94A900CE01DF91CF910C94710ECF93C4
:1001D000DF93EC018A8181110BC026E040E855E2F3
:1001E00060E070E08AEF92E00E945A0F81E08A831B
:1001F0008A81DF91CF9108952EE131E0FC013183B6
:100200002083128208958AEF92E00E94770E21E007
:10021000181619060CF020E0822F0895CF93DF9373
:100220001F92CDB7DEB719828AEF92E00E94770E57
:10023000181619064CF441E050E0BE016F5F7F4F85
:100240008AEF92E00E94B71089810F90DF91CF91E1
:100250000895CF938091EE0261E0813069F084E0EF
:100260000E94E91183E00E941F12C1E0892B09F46A
:10027000C0E060E084E00CC085E00E94E91183E00A
:100280000E941F12C1E0892B09F4C0E060E085E004
:100290000E94E9118C2FCF910895FC01808141309B
:1002A00011F4682B02C06095682360830895CF9293
:1002B000DF92EF92FF920F931F93CF93DF93EC01A6
:1002C00083E090E00E946F0E6C010E94FC00DB82D4
:1002D000CA8282E090E00E946F0E6C010E943F0B88
:1002E000DD82CC828FE190E00E946F0E6C01EC8089
:1002F000FD800A811B8129E130E04FEF50E069E188
:1003000070E00E94E20CDF82CE828A819B81DC0158
:10031000ED91FC910480F581E02D40E855E26EE21C
:1003200071E0DF91CF911F910F91FF90EF90DF90DF
:10033000CF900994DC0112968D919C9113970097B0
:1003400039F0DC01ED91FC910680F781E02D0994F4
:100350000895CF93DF93EC0183E391E09983888341
:10036000CE010E949A0188859985009711F00E941C
:10037000750E8E819F81009739F0DC01ED91FC9123
:100380000280F381E02D09958C819D81009739F0E1
:10039000DC01ED91FC910280F381E02D09958A81C9
:1003A0009B81009749F0DC01ED91FC910280F38183
:1003B000E02DDF91CF910994DF91CF910895CF93F4
:1003C000DF93EC010E94A901CE01DF91CF910C9443
:1003D000710E60E082E00E94B01160E083E00E9454
:1003E000B01161E084E00E94B01161E087E00E94FA
:1003F000B01161E085E00E94B01181E008950F9393
:100400001F93CF93DF93EC0100E010E08C859D8576
:10041000081719070CF0A2C082E00E941F12019772
:10042000D9F761E087E00E94E9111092EE028E8D0B
:100430009F8D0E9442110E9429018093F002109228
:10044000EE0288A199A10E9442110E942901809385
:10045000F1021092EE028AA19BA10E9442110E9419
:1004600029018093F20281E08093EE028CA19DA18C
:100470000E9442110E9429018093F3021092EE0221
:100480008EA19FA10E9442110E9429018093F40233
:100490001092EE0288A599A50E9442110E9429019E
:1004A0008093F5021092EE028AA59BA50E9442114C
:1004B0000E9429018093F6021092EE028CA59DA560
:1004C0000E9442110E9429018093F70260E087E0B8
:1004D0000E94E9111092EF024091F00261E08FEE6C
:1004E00092E00E944D014091F10262E08FEE92E0B5
:1004F0000E944D014091F20260E18FEE92E00E9475
:100500004D014091F30264E08FEE92E00E944D01B4
:100510004091F40260E28FEE92E00E944D01409122
:10052000F50268E08FEE92E00E944D014091F602E4
:1005300060E48FEE92E00E944D014091F70260E886
:100540008FEE92E00E944D018091EF02E885F985DF
:10055000E00FF11F80830F5F1F4F58CFDF91CF91C6
:100560001F910F910895DC0116968D919C9117971C
:10057000009739F0DC01ED91FC910480F581E02DCC
:1005800009940895FC0126853785378F268F808949
:100590009189AC01421B530B51A340A32689378993
:1005A000A901481B590B53A342A382899389AC012B
:1005B000421B530B55A344A3208D318DA901481B29
:1005C000590B57A346A384899589AC01421B530B51
:1005D00051A740A7228D338DA901481B590B53A762
:1005E00042A7848D958D821B930B95A784A70895B0
:1005F000CF93DF93EC0183E391E0998388837B873A
:100600006A872CE0269FC001279F900D11249D87AB
:100610008C870E94730E998788871B821A821F829B
:100620001E821D821C8286E090E09F878E878DE26D
:1006300090E0998B888B86E490E09B8B8A8B85E594
:1006400090E09D8B8C8B8FE290E09F8B8E8B82E570
:1006500090E0998F888F89E690E09B8F8A8F8DE755
:1006600090E09D8F8C8FCE01DF91CF910C94C202D0
:10067000EF92FF920F931F93CF93DF93CDB7DEB727
:1006800027970FB6F894DEBF0FBECDBF8C01DC01FB
:1006900016968D919C911797892B09F459C020E0EB
:1006A00030E040E060E070E0CE0101960E94E50994
:1006B000F80186819781DC01ED91FC910688F7892C
:1006C000E02DBE016F5F7F4F09958823E9F1CE01D0
:1006D00001960E9450067C01CE0101960E945706A9
:1006E000482F50E04830510578F5FA01EC5CFF4F97
:1006F0000C947E12F801F786E68623C0D801519645
:10070000FC92EE9250971DC0F801F38AE28A19C05C
:10071000D8015596FC92EE92549713C0F801F78ACF
:10072000E68A0FC0D8015996FC92EE92589709C0FC
:10073000F801F38EE28E05C0D8015D96FC92EE9230
:100740005C97C8010E94C202CE0101960E94B505C5
:1007500027960FB6F894DEBF0FBECDBFDF91CF91C5
:100760001F910F91FF90EF900895CF92DF92EF923B
:10077000FF920F931F93CF93DF93CDB7DEB76297AE
:100780000FB6F894DEBF0FBECDBF7C0160E070E015
:10079000CE0101960E94040A1A8A198AC12CD12C12
:1007A00000E010E0F7018285938508171907BCF572
:1007B000E981FA810680F781E02DB801CE0101962A
:1007C00009951A8A198A89899A890C97C4F4D701DC
:1007D0001896ED91FC911997EC0DFD1D4081BE011D
:1007E0006F5E7F4FCE0101960E94B907BFEFCB1A13
:1007F000DB0A89899A8901969A8B898BE4CFF70164
:1008000086819781DC01ED91FC91008CF18DE02DCA
:10081000BE016F5F7F4F09950F5F1F4FC3CFCE01A2
:1008200001960E94710762960FB6F894DEBF0FBE64
:10083000CDBFDF91CF911F910F91FF90EF90DF908F
:10084000CF9008950C94B503CF93DF938EE290E0A0
:100850000E946F0EEC0161E070E00E94F802D093FC
:10086000F902C093F802CE010E94E9018091F802DA
:100870009091F902DF91CF910C9457018091F80289
:100880009091F902009771F00E9438038091F8026C
:100890009091F9020E94FF018091F8029091F90273
:1008A0000C94220408958091F8029091F902892B0A
:1008B00009F408958AEF92E00E94770E892B39F0AF
:1008C0008091F8029091F9020E94B302F3CF08954B
:1008D0002BE331E0FC01318320830895FC01828108
:1008E0009381019708951F93CF93DF93FC01162FF7
:1008F000EA0182858111FFCF81E0828724813581E1
:10090000C9010196628173810E9448124681578114
:100910008417950749F0A085B185A20FB31F1C93DA
:100920009583848381E001C080E01286209709F0DE
:100930008883DF91CF911F910895CF93DF93FC01BE
:10094000EB0182858111FFCF81E08287268137818B
:10095000848195818217930779F0A085B185A20FD4
:10096000B31F4C91C9010196628173810E944812A4
:100970009783868381E002C040E080E0209709F001
:1009800088831286842FDF91CF910895FC018481A2
:1009900095810196628173810E94481241E026810F
:1009A00037818217930709F040E0842F0895FC01F6
:1009B00081E044815581268137814217530709F030
:1009C00080E008952BE331E0FC01318320830C9417
:1009D000710ECF93DF93EC018DE491E099838883CE
:1009E00088859985009711F00E94750E8BE391E040
:1009F00099838883DF91CF910895CF93DF93EC01A2
:100A00000E94E904CE01DF91CF910C94710ECF9337
:100A1000DF93EC01CB012DE431E0398328839B0186
:100A20002F5F3F4F3B832A831D821C821F821E82C1
:100A30000E94730E998788871A86DF91CF91089557
:100A40002FE531E0FC0131832083089580E090E0C0
:100A5000089582E090E0089583E090E0089584E0B6
:100A600090E0089585E090E00895FC01738362832F
:100A70000895FC018281938108950F931F93CF9372
:100A8000DF938C01EB01E881F981DC0112968D91F5
:100A90009C9113972FEF30E0B9010E9448126083B8
:100AA000D80112968D919C911397B9010E9448121A
:100AB00081833296F983E883DF91CF911F910F9163
:100AC0000895DB01ED91FC914081218130E0BFEF81
:100AD0004B9F200D311D1124DC0113963C932E9366
:100AE00012973296DB01ED93FC9381E00895FF921B
:100AF0000F931F93CF93DF93EC018B01E881F98172
:100B00000288F389E02D0995F82EE881F9810284A5
:100B1000F385E02DCE010995F801E80FF91F319713
:100B200081E09081F91280E0DF91CF911F910F91C8
:100B3000FF900895CF93DF93EB01DC01ED91FC91E1
:100B40000284F385E02D09959C0121503109FE01B5
:100B500080E0AF014C1B5D0B421753071CF49191D1
:100B60008927F7CFDF91CF9108952FE531E0FC0180
:100B700031832083089589E090E00895EF92FF92F9
:100B80000F931F93CF93DF938C01EB01E880F980E3
:100B90008EEED7018C938FEF11968C93119712964E
:100BA0001C92C701039699838883C8010E943D0562
:100BB000E881F981D80114968D919C9115972FEFBA
:100BC00030E0B9010E9448126083D80114968D91DB
:100BD0009C911597B9010E9448128183CF0102961A
:100BE00099838883D80116968C91169782833396C1
:100BF000F983E883ED91FC910288F389E02DB70138
:100C0000C8010995E881F9818193F983E883DF912F
:100C1000CF911F910F91FF90EF9008950F931F9325
:100C2000CF93DF938C01EB01DC01ED91FC916881A6
:100C300079810088F189E02D0995882321F1888147
:100C40009981039699838883BE01C8010E9461053A
:100C5000E881F9812081818190E0BFEF2B9F800D99
:100C6000911D1124D80115969C938E931497CF0152
:100C7000029699838883828116968C933496F983A1
:100C8000E88381E001C080E0DF91CF911F910F9157
:100C90000895FB0120813181FC013583248308956F
:100CA000FC01848195810895FC0166830895FC010F
:100CB000868108952FE531E0FC013183208308957A
:100CC00089E090E00895EF92FF920F931F93CF93E6
:100CD000DF938C01EB01E880F9808EEED7018C93D5
:100CE0008FEF11968C93119782E012968C93C70127
:100CF000039699838883C8010E943D05E881F981A4
:100D0000D80114968D919C9115972FEF30E0B90181
:100D10000E9448126083D80114968D919C9115977A
:100D2000B9010E9448128183CF010296998388837A
:100D3000D80116968C91169782833396F983E883AF
:100D4000ED91FC910288F389E02DB701C801099566
:100D5000E881F9818193F983E883DF91CF911F9135
:100D60000F91FF90EF9008950F931F93CF93DF9310
:100D70008C01EB01DC01ED91FC91688179810088A7
:100D8000F189E02D0995882321F1888199810396C5
:100D900099838883BE01C8010E946105E881F981B9
:100DA0002081818190E0BFEF2B9F800D911D112448
:100DB000D80115969C938E931497CF010296998330
:100DC0008883828116968C933496F983E88381E038
:100DD00001C080E0DF91CF911F910F910895FB0139
:100DE00020813181FC01358324830895FC018481B5
:100DF00095810895FC0166830895FC01868108951C
:100E00002FE531E0FC0131832083089587E090E0F5
:100E10000895EF92FF920F931F93CF93DF937C017E
:100E2000EB01088119818EEED8018C938FEF11961A
:100E30008C93119783E012968C93C8010396998343
:100E40008883C7010E943D05F7018481E881F9810B
:100E50008193F983E883D701ED91FC910288F389AE
:100E6000E02DB801C7010995E881F9818193F983E3
:100E7000E883DF91CF911F910F91FF90EF9008953C
:100E80000F931F93CF93DF938C01EB01DC01ED9166
:100E9000FC91688179810088F189E02D099588238A
:100EA000A1F088819981039699838883BE01C80146
:100EB0000E946105E881F9818081D80114968C93A4
:100EC0003296F983E88381E001C080E0DF91CF9121
:100ED0001F910F910895FC0164830895FC018481A2
:100EE00008952FE531E0FC0131832083089582E1EC
:100EF00090E00895EF92FF920F931F93CF93DF93AB
:100F00007C01EB01088119818EEED8018C938FEF63
:100F100011968C93119784E012968C93C8010396D6
:100F200099838883C7010E943D0580E090E0F70126
:100F3000E80FF91F2481E881F9812193F983E8837F
:100F400001968C30910599F7D701ED91FC910288BB
:100F5000F389E02DB801C7010995E881F9818193F2
:100F6000F983E883DF91CF911F910F91FF90EF906C
:100F70000895DB01ED91FC91E80FF91F448308957A
:100F8000DB01ED91FC91E80FF91F848108952FE5B5
:100F900031E0FC0131832083089588E090E00895DA
:100FA000EF92FF920F931F93CF93DF938C01EB018E
:100FB000E880F9808EEED7018C938FEF11968C9399
:100FC000119785E012968C93C701039699838883C5
:100FD000C8010E943D05E881F981D80114968D91E0
:100FE0009C9115972FEF30E0B9010E944812608361
:100FF000D80114968D919C911597B9010E944812C1
:1010000081833296F983E883D801ED91FC910288BF
:10101000F389E02DB701C8010995E881F981819331
:10102000F983E883DF91CF911F910F91FF90EF90AB
:1010300008950F931F93CF93DF938C01EB01DC0195
:10104000ED91FC91688179810088F189E02D099505
:101050008823E9F088819981039699838883BE016A
:10106000C8010E946105E881F9812081818190E0B9
:10107000BFEF2B9F800D911D1124D80115969C93D5
:101080008E9314973396F983E88381E001C080E062
:10109000DF91CF911F910F910895FB012081318144
:1010A000FC01358324830895FC0184819581089592
:1010B000FC0184819581880F991F08960895AF924D
:1010C000BF92CF92DF92EF92FF920F931F93CF9335
:1010D000DF938C01EB01E880F9808EEED7018C93D1
:1010E0008FEF11968C93C701029699838883D8015C
:1010F000ED91FC910480F581E02DC8010995F7017F
:101100008283C701039699838883BE01C8010E9428
:101110003D05E881F981D80114968D919C91159730
:101120002FEF30E0B9010E9448126083D801149675
:101130008D919C911597B9010E9448128183329636
:10114000F983E88320E030E0AA24AA94B12CD801E6
:1011500014968D919C9115972817390714F5C8801E
:10116000D980C901880F991FD8011696ED91FC917D
:101170001797E80FF91F80819181B5010E944812ED
:10118000D6016C9380819181B5010E944812F601CD
:101190008183F2E0CF0ED11CD982C8822F5F3F4FEE
:1011A000D6CFED91FC910288F389E02DB701C801FB
:1011B0000995E881F9818193F983E883DF91CF91E3
:1011C0001F910F91FF90EF90DF90CF90BF90AF9065
:1011D00008950F931F93CF93DF938C01EB01DC01F4
:1011E000ED91FC91688179810088F189E02D099564
:1011F000882309F440C08881998103969983888364
:10120000BE01C8010E946105E881F98120818181C8
:1012100090E0BFEF2B9F800D911D1124D8011596F2
:101220009C938E9314973296F983E883892B39F433
:101230008881998101969983888381E01DC0F80196
:10124000A681B78180E090E0F80124813581821782
:10125000930774F7E881F9814081218130E05FEFE5
:10126000459F200D311D11242D933D933296F98316
:10127000E8830196E9CF80E0DF91CF911F910F9134
:101280000895FC01848195810895DA014D915C9166
:10129000FB0120813181220F331FDC011696ED9175
:1012A000FC911797E20FF31F518340830895DB01F0
:1012B0002D913C91220F331FDC011696ED91FC918C
:1012C0001797E20FF31F8081918108952FE531E098
:1012D000FC01318320830C94710E2FE531E0FC0179
:1012E000318320830C94710E2FE531E0FC013183B2
:1012F00020830C94710E2FE531E0FC0131832083B3
:101300000C94710E2FE531E0FC01318320830C94A5
:10131000710E2FE531E0FC01318320830C94710EB6
:10132000CF93DF93EC018BE092E0998388838E81E9
:101330009F81009711F00E94750E8FE591E09983CF
:101340008883DF91CF910895CF93DF93EC010E94C2
:101350009009CE01DF91CF910C94710E0F931F93E2
:10136000CF93DF938C01EB01DC01ED91FC9168815F
:1013700079810088F189E02D0995882301F1888120
:101380009981039699838883BE01C8010E946105F3
:1013900080E090E028813981F9014191D801A80FBE
:1013A000B91F14964C93F983E88301968C3091050C
:1013B00089F72E5F3F4F3983288381E001C080E0A9
:1013C000DF91CF911F910F910895FC017383628388
:1013D00087E791E091838083358324834683089552
:1013E000FC017383628387E991E091838083558355
:1013F000448326830895FC017383628387EB91E025
:101400009183808344830895FC017383628323ED79
:1014100031E0318320830895FC01738362838FEE72
:1014200091E091838083558344830895CF93DF9324
:10143000EC017B836A838BE092E0998388835D83F0
:101440004C8341388FE3580720F4CA01880F991F55
:1014500002C08FEF9FEF0E94730E9F838E83DF91F8
:10146000CF91089523E332E0FC0131832083089576
:1014700086E090E008958CE190E0089587E090E0A8
:1014800008958AE390E0089588E090E008958CE65E
:1014900090E0089589E090E0089580ED90E008954F
:1014A00023E332E0FC01318320830895FB01808136
:1014B00091818A30910530F4FC01EB5DFD4F808114
:1014C00090E0089580E090E0089523E332E0FC018D
:1014D000318320830C94710E23E332E0FC013183CD
:1014E00020830C94710E2FE332E0FC0131832083C2
:1014F0000C949009CF93DF93EC010E94730ACE0104
:10150000DF91CF910C94710E2DE532E0FC01318317
:1015100020830C949009CF93DF93EC010E94840AFE
:10152000CE01DF91CF910C94710E2BE732E0FC01DC
:10153000318320830C949009CF93DF93EC010E94B8
:10154000950ACE01DF91CF910C94710E29E932E01A
:10155000FC01318320830C949009CF93DF93EC013D
:101560000E94A60ACE01DF91CF910C94710ECF9309
:10157000DF93DB01ED91FC91EA30F10508F079C0D1
:10158000E45CFF4F0C947E1287E090E00E946F0EA7
:10159000EC0120E030E040E060E070E00E94E5090E
:1015A0006AC087E090E00E946F0EEC0120E040E00E
:1015B00050E060E070E00E94F0095DC085E090E0DE
:1015C0000E946F0EEC0140E060E070E00E94FB09B9
:1015D00052C080E190E00E946F0EEC0160E070E08C
:1015E0000E94040A48C086E090E00E946F0EEC0161
:1015F00040E050E060E070E00E940C0A3CC088E0EF
:1016000090E00E946F0EEC014AE050E060E070E074
:101610000E94160A8FE392E029C088E090E00E94C1
:101620006F0EEC0149E150E060E070E00E94160AA4
:101630008DE592E01BC088E090E00E946F0EEC0107
:1016400042E350E060E070E00E94160A8BE792E00F
:101650000DC088E090E00E946F0EEC0144E650E07F
:1016600060E070E00E94160A89E992E0998388831D
:1016700002C0C0E0D0E0CE01DF91CF91089527EB0A
:1016800032E0FC01318320830895CF93DF93EC0196
:101690008C859D85DC01ED91FC910484F585E02D20
:1016A0000995AE81BF81ED91FC911197AE014C5E21
:1016B0005F4F0680F781E02D682FCD01DF91CF913C
:1016C0000994FC0184890895DC0116968D919C9102
:1016D0001797DC01ED91FC910484F585E02D0994C8
:1016E000FC01138A128A118A108A168A158A0895B3
:1016F000FC01858996890895FC018789908D08955C
:10170000FC01818D928D0895CF93DF93EC0183ECE2
:1017100092E0998388838E819F81009739F0DC0164
:10172000ED91FC910280F381E02D099588859985E2
:10173000009711F00E94750E8A859B85009721F015
:10174000DF91CF910C94750EDF91CF910895CF93D7
:10175000DF93EC010E94840BCE01DF91CF910C94BA
:10176000710ECF92DF92EF92FF920F931F93CF9360
:10177000DF9300D0CDB7DEB78C01DC015596CD905C
:10178000DC905697B2E0CB16D10409F042C0FC01C0
:1017900086859785DC01ED91FC910680F781E02D2F
:1017A000B801635E7F4F09957C01009741F1F80114
:1017B000828593859A838983D701ED91FC91068474
:1017C000F785E02DBE016F5F7F4FC7010995882324
:1017D00041F0F801168A158A81E090E0908F878B9E
:1017E0001AC0D701ED91FC910280F381E02DC70171
:1017F0000995F801168A158AD08EC78A0AC0D801C1
:1018000056961C921E92559758961C921E92579768
:1018100002C0E12CF12CC7010F900F90DF91CF9106
:101820001F910F91FF90EF90DF90CF900895EF926E
:10183000FF920F931F93CF93DF9300D000D0CDB7CB
:10184000DEB78C017B01DB01ED91FC910480F58119
:10185000E02DCB0109959C838B83D801ED91FC9100
:101860000284F385E02DBE016D5F7F4FC8010995AD
:10187000F80185899689029759F5828593859A831F
:101880008983D701ED91FC910684F785E02DBE0197
:101890006F5F7F4FC7010995882341F0F801168AD1
:1018A000158A81E090E0908F878B13C0E114F104DA
:1018B00041F0D701ED91FC910280F381E02DC70149
:1018C0000995F801168A158A82E090E0908F878B3F
:1018D00080E00F900F900F900F90DF91CF911F91AC
:1018E0000F91FF90EF900895CF92DF92EF92FF92C9
:1018F0000F931F93CF93DF9300D0CDB7DEB78C014A
:101900007B01DC0159968D919C915A978D7F892B93
:1019100009F04CC081E090E05A969C938E935997C1
:1019200018968D919C9119979A838983DB01ED918B
:10193000FC910484F585E02DBE016F5F7F4FC701E8
:101940000995D701ED91FC910284F385E02DC70143
:1019500009956C01F801808591859A838983E12C32
:10196000F12CEC14FD04CCF4F801A485B585ED91BF
:10197000FC91119789819A8126853785FC016081C8
:10198000CD01F901099529813A812F5F3F4F3A83B3
:101990002983FFEFEF1AFF0AE4CF82E090E0D8013D
:1019A0005A969C938E93599781E001C080E00F90E6
:1019B0000F90DF91CF911F910F91FF90EF90DF90EB
:1019C000CF900895AF92BF92CF92DF92EF92FF92A5
:1019D0000F931F93CF93DF93EC01590183EC92E0B7
:1019E000998388837B836A835D834C838BE090E05B
:1019F0000E946F0E6C01B5010E940705DF82CE8246
:101A00008A819B810E94730E998788878C819D8132
:101A10000E94730E9B878A871D870C87FF86EE8640
:101A2000198A188A8FEF9FEF9E8F8D8F1E8A1D8ACD
:101A3000188E1F8A1A8E198E1C8E1B8EDF91CF91E5
:101A40001F910F91FF90EF90DF90CF90BF90AF90DC
:101A500008958F929F92AF92BF92CF92DF92EF92B2
:101A6000FF920F931F93CF93DF931F92CDB7DEB7F3
:101A70008C017B016A01AA24A394B12C92E0892EE7
:101A8000912C1982D8015B968D919C915C97892B42
:101A9000C9F416968D919C911797DC01ED91FC91FC
:101AA0000084F185E02DBE016F5F7F4F099599811C
:101AB0009923E1F08E3E21F4F801B48EA38E02C08A
:101AC000D801E7CFF801838D948D0197E1F48681E9
:101AD0009781DC01ED91FC910084F185E02DBE0140
:101AE0006F5F7F4F09959981911102C080E035C0E9
:101AF0008F3F21F4F801948E838E05C0D8015C9647
:101B00001C921E925B97F801838D948D029709F0C9
:101B1000B8CF86819781DC01ED91FC910084F1853D
:101B2000E02DBE016F5F7F4F099599819923F1F2F6
:101B300090E0F601208131812F3FFFEF3F0721F038
:101B40002817390709F09DCFD7018D939C9383E027
:101B500090E0F801948F838F81E00F90DF91CF9117
:101B60001F910F91FF90EF90DF90CF90BF90AF90BB
:101B70009F908F900895CF92DF92EF92FF920F93F4
:101B80001F93CF93DF931F92CDB7DEB78C017B01FC
:101B9000DC0155968D919C9156978130910509F401
:101BA0004AC08230910509F48DC0892B09F08DC09F
:101BB0006801BDE1CB0ED11CAB01B601C8010E948A
:101BC000290D882309F481C0D8011A96ED91FC9162
:101BD0001B978EEE80831A96ED91FC911B978FEFE9
:101BE00081831A96ED91FC911B975D968C915D9780
:101BF00082831E968D919C911F97DC01ED91FC9143
:101C00000480F581E02DB60109950397F801918BC9
:101C1000808B81E090E0968B858B83E090E0938BC6
:101C2000828B0190F081E02D0284F385E02DB701D5
:101C3000C80109954AC01982F8018089918918164E
:101C4000190694F4D80116968D919C911797DC0192
:101C5000ED91FC910084F185E02DBE016F5F7F4F17
:101C600009959981911111C0F801808991891816FF
:101C700019065CF1138A128A118A108A82E090E0B8
:101C8000968B858B148E138E20C0D8011A96ED91F9
:101C9000FC911B9752962D913C915397A9014F5F50
:101CA0005F4F53965C934E935297E20FF31F8083DE
:101CB00050968D919C915197019751969C938E933C
:101CC0005097BACFF801148E138E0F90DF91CF91F9
:101CD0001F910F91FF90EF90DF90CF9008950C949B
:101CE00098120C9430130C9498120C943013FC013D
:101CF000818D228D90E0805C9F4F821B91098F73B4
:101D000099270895FC01918D828D981731F0828D6D
:101D1000E80FF11D858D90E008958FEF9FEF0895F6
:101D2000FC01918D828D981761F0828DDF01A80FE3
:101D3000B11D5D968C91928D9F5F9F73928F90E005
:101D400008958FEF9FEF089584E190E1892B49F08A
:101D500083E594E0892B29F00E94141081110C94E2
:101D600053040895FC01848DDF01A80FB11DA35A0F
:101D7000BF4F2C91848D90E001968F739927848FAB
:101D8000A689B7892C93A089B1898C9180648C93A2
:101D9000938D848D981306C00288F389E02D80818D
:101DA0008F7D80830895CF93DF93EC01888D882306
:101DB000C9F0EA89FB89808185FD05C0A889B989B8
:101DC0008C9186FD0FC00FB607FCF5CF808185FF93
:101DD000F2CFA889B9898C9185FFEDCFCE010E9401
:101DE000B20EE7CFDF91CF910895CF92DF92FF92AD
:101DF0000F931F93CF93DF931F92CDB7DEB76C0184
:101E0000DC015B969C915B975C968C915C97981338
:101E100007C05096ED91FC915197808185FD32C0AD
:101E2000F601038D10E00F5F1F4F0F731127F02E87
:101E3000F601848DF81211C00FB607FCF9CFD60158
:101E40005096ED91FC915197808185FFF1CFC601AD
:101E500069830E94B20E6981EBCF838DE80FF11D7B
:101E6000E35AFF4F6083D6015B960C935B975296C3
:101E7000ED91FC91539780818062808381E0589638
:101E80008C930DC0D6015696ED91FC9157976083C7
:101E90005096ED91FC91519780818064808381E020
:101EA00090E00F90DF91CF911F910F91FF90DF9005
:101EB000CF900895BF92CF92DF92EF92FF92CF938F
:101EC000DF93EC016A017B01B22EE889F98982E097
:101ED0008083411581EE580761057105A1F060E02E
:101EE00079E08DE390E0A70196010E945C122150F9
:101EF000310941095109569547953795279521157F
:101F000080E1380798F0E889F989108260E874E880
:101F10008EE190E0A70196010E945C1221503109E8
:101F2000410951095695479537952795EC85FD85CB
:101F30003083EE85FF852083188EEC89FD89B08281
:101F4000EA89FB89808180618083EA89FB898081BD
:101F500088608083EA89FB89808180688083EA8940
:101F6000FB8980818F7D8083DF91CF91FF90EF90FF
:101F7000DF90CF90BF9008951F920F920FB60F92EF
:101F800011242F938F939F93EF93FF93E0910A0374
:101F9000F0910B038081E0911003F091110382FD19
:101FA00012C09081809113038F5F8F73209114036F
:101FB000821751F0E0911303F0E0E650FD4F958F4A
:101FC0008093130301C08081FF91EF919F918F91C6
:101FD0002F910F900FBE0F901F9018951F920F9288
:101FE0000FB60F9211242F933F934F935F936F93EC
:101FF0007F938F939F93AF93BF93EF93FF938AEF5A
:1020000092E00E94B20EFF91EF91BF91AF919F912C
:102010008F917F916F915F914F913F912F910F9091
:102020000FBE0F901F9018958AEF92E00E94770ED6
:1020300021E0892B09F420E0822F08951092FD02FF
:102040001092FC0288EE93E0A0E0B0E08093FE02E4
:102050009093FF02A0930003B093010381EE92E0FE
:102060009093FB028093FA0285EC90E09093070333
:102070008093060384EC90E0909309038093080317
:1020800080EC90E090930B0380930A0381EC90E046
:1020900090930D0380930C0382EC90E090930F03D8
:1020A00080930E0386EC90E09093110380931003CD
:1020B000109213031092140310921503109216033A
:1020C0000895CF92DF92EF92FF920F931F93CF93D9
:1020D000DF936C017A01EB01E60EF71E00E010E0E1
:1020E000CE15DF0561F06991D601ED91FC9101906B
:1020F000F081E02DC6010995080F191FF1CFC80125
:10210000DF91CF911F910F91FF90EF90DF90CF90D3
:1021100008950F931F93CF93DF93EC010E94361124
:10212000688779878A879B87E881F9810680F781AC
:10213000E02DCE01099597FF15C00E943611088544
:1021400019852A853B85601B710B820B930B0C81D3
:102150001D812E813F81601771078207930720F34D
:102160008FEF9FEFDF91CF911F910F910895CF9245
:10217000DF92EF92FF920F931F93CF93DF937C0137
:102180006A01EB0100E010E00C151D0549F0C701E4
:102190000E94891097FD04C089930F5F1F4FF4CFF1
:1021A000C801DF91CF911F910F91FF90EF90DF90C9
:1021B000CF9008950E94BF1308950E944C110E9471
:1021C000DC100E942404C4EADEE00E943E04209752
:1021D000E1F30E94A40EF9CF1F920F920FB60F9257
:1021E00011242F933F938F939F93AF93BF9380912D
:1021F000980390919903A0919A03B0919B03309119
:10220000970323E0230F2D3720F40196A11DB11D64
:1022100005C026E8230F0296A11DB11D2093970348
:102220008093980390939903A0939A03B0939B0390
:1022300080919C0390919D03A0919E03B0919F0378
:102240000196A11DB11D80939C0390939D03A093C3
:102250009E03B0939F03BF91AF919F918F913F9148
:102260002F910F900FBE0F901F9018952FB7F894D5
:10227000609198037091990380919A0390919B03C8
:102280002FBF0895019739F0880F991F880F991F64
:1022900002970197F1F70895789484B5826084BD20
:1022A00084B5816084BD85B5826085BD85B581605A
:1022B00085BDEEE6F0E0808181608083E1E8F0E0BA
:1022C0001082808182608083808181608083E0E8E9
:1022D000F0E0808181608083E1EBF0E080818460C8
:1022E0008083E0EBF0E0808181608083EAE7F0E0CA
:1022F000808184608083808182608083808181602E
:1023000080838081806880831092C100089583302B
:1023100081F028F4813099F08230A1F0089587305F
:10232000A9F08830B9F08430D1F4809180008F7D9D
:1023300003C0809180008F7780938000089584B5DA
:102340008F7702C084B58F7D84BD08958091B000E1
:102350008F7703C08091B0008F7D8093B000089587
:10236000CF93DF9390E0FC01E056FF4F2491FC01F6
:10237000EC54FF4F8491882349F190E0880F991F16
:10238000FC01E452FF4FA591B4918E529F4FFC0186
:10239000C591D4919FB7611108C0F8948C91209594
:1023A00082238C93888182230AC0623051F4F8948E
:1023B0008C91322F309583238C938881822B888354
:1023C00004C0F8948C91822B8C939FBFDF91CF91A6
:1023D00008950F931F93CF93DF931F92CDB7DEB76E
:1023E000282F30E0F901E457FF4F8491F901E056BE
:1023F000FF4F1491F901EC54FF4F04910023C9F0F1
:10240000882321F069830E9487116981E02FF0E021
:10241000EE0FFF1FEE52FF4FA591B4919FB7F894B6
:102420008C91611103C01095812301C0812B8C9385
:102430009FBF0F90DF91CF911F910F910895CF9380
:10244000DF93282F30E0F901E457FF4F8491F90121
:10245000E056FF4FD491F901EC54FF4FC491CC23C7
:1024600091F081110E948711EC2FF0E0EE0FFF1F19
:10247000E853FF4FA591B4912C912D2381E090E07A
:1024800021F480E002C080E090E0DF91CF910895D8
:1024900097FB072E16F4009407D077FD09D00E9411
:1024A000841207FC05D03EF4909581959F4F0895C6
:1024B000709561957F4F0895A1E21A2EAA1BBB1B50
:1024C000FD010DC0AA1FBB1FEE1FFF1FA217B30700
:1024D000E407F50720F0A21BB30BE40BF50B661F16
:1024E000771F881F991F1A9469F7609570958095DA
:1024F00090959B01AC01BD01CF010895EE0FFF1F28
:102500000590F491E02D0994AA1BBB1B51E107C073
:10251000AA1FBB1FA617B70710F0A61BB70B881F73
:10252000991F5A95A9F780959095BC01CD01089502
:10253000CF93DF938230910510F482E090E0E09138
:10254000A203F091A30320E030E0A0E0B0E03097D8
:1025500039F14081518148175907B8F04817590798
:1025600071F482819381109729F013969C938E9336
:1025700012972CC09093A3038093A20327C0211528
:10258000310531F04217530718F0A901DB0101C0F2
:10259000EF019A01BD01DF010280F381E02DD7CF69
:1025A00021153105F9F0281B390B2430310580F451
:1025B0008A819B816115710521F0FB0193838283E0
:1025C00004C09093A3038093A203FE01329644C0FB
:1025D000FE01E20FF31F8193919322503109398359
:1025E00028833AC02091A0033091A103232B41F40A
:1025F00020910201309103013093A1032093A003A5
:1026000020910001309101012115310541F42DB7D0
:102610003EB74091040150910501241B350BE09118
:10262000A003F091A103E217F307A0F42E1B3F0BC8
:102630002817390778F0AC014E5F5F4F2417350734
:1026400048F04E0F5F1F5093A1034093A003819366
:10265000919302C0E0E0F0E0CF01DF91CF910895C7
:10266000CF93DF93009709F487C0FC013297138260
:102670001282C091A203D091A303209781F42081FC
:102680003181280F391F8091A0039091A1038217F7
:10269000930779F5F093A103E093A0036DC0DE01E9
:1026A00020E030E0AE17BF0750F412964D915C91D8
:1026B00013979D014115510509F1DA01F3CFB38359
:1026C000A28340815181840F951F8A179B0771F463
:1026D0008D919C911197840F951F02969183808311
:1026E00012968D919C9113979383828321153105C6
:1026F00029F4F093A303E093A2033EC0D9011396FB
:10270000FC93EE9312974D915D91A40FB51FEA17BC
:10271000FB0779F480819181840F951F0296D9017E
:1027200011969C938E938281938113969C938E93A2
:102730001297E0E0F0E08A819B81009719F0FE019A
:10274000EC01F9CFCE01029628813981820F931FC7
:102750002091A0033091A1032817390769F430971D
:1027600029F41092A3031092A20302C013821282D2
:10277000D093A103C093A003DF91CF91089581E08E
:0C27800090E0F8940C94C413F894FFCF80
:10278C000000A4038000000000009E00D600DA10B8
:10279C00DA10DA10DA10DA10DA1000000000A900F2
:1027AC00DD00E700A400BA0003010E01BD0000002B
:1027BC00000000A901DF01000000006804E204DA57
:1027CC0010DA10DA10DA10DA1000000000E904FD5B
:1027DC00046E0473049D04C604D70400000000209A
:1027EC00056609DA10DA10DA10DA10DA10DA10DA13
:1027FC0010DA1000000000B5056D09260535053905
:10280C0005BB05BE050E0677059A0549065006540C
:10281C00065706000000005A0674092905350539CB
:10282C000560066306B40677059A05EF06F606FA08
:10283C0006FD060000000000077B092C0535053954
:10284C000506070907400777059A056B076E070011
:10285C00000000710782092F053505390577077AC5
:10286C0007AE0977059A05B907C00700000000C735
:10287C00078909320535053905CD07D007190877C1
:10288C00059A054D085408000000009009A409DAC7
:10289C00103505390558085F08E90877059A054190
:1028AC0009450957090900090712081C3A6CD000A0
:1028BC00000000320A650ADA10DA1000000000731A
:1028CC000A7A0A380A350539053B0A5F08E90877A0
:1028DC00059A0541094509570900000000840A8B37
:1028EC000A3E0A35053905410A5F08E90877059A59
:1028FC000541094509570900000000950A9C0A4446
:10290C000A35053905470A5F08E90877059A054134
:10291C00094509570900000000A60AAD0A4A0A3504
:10292C000539054D0A5F08E90877059A05410945FF
:10293C0009570900000000500A6C0A560AB70A0031
:10294C00000000840BA70B450B610B640BBB0D70D7
:10295C000B780B7C0B800BB10B170C740C0000006C
:0E296C0000F50E6110770E900E820ED30E0055
:00000001FF
